S01500004C4544205363726F6C6C696E672E737265636D
S11300000C942A000C9434000C9434000C943400A6
S11300100C9434000C9434000C9434000C9434008C
S11300200C9434000C9434000C9434000C9434007C
S11300300C9434000C9434000C9434000C9434006C
S11300400C9434000C9434000C9434000C9434005C
S11300500C94340011241FBECFE5D4E0DEBFCDBF25
S11300600E9436000C94DF000C940000A09AA19A20
S1130070A29AA39AA49AA59AA69AA79AA89A2FEFA5
S113008084E39CE0215080409040E1F700C00000F0
S1130090A8982FEF84E39CE0215080409040E1F742
S11300A000C00000A99A2FEF84E39CE02150804017
S11300B09040E1F700C00000A9982FEF84E39CE092
S11300C0215080409040E1F700C00000AA9A2FEF31
S11300D084E39CE0215080409040E1F700C00000A0
S11300E0AA982FEF84E39CE0215080409040E1F7F0
S11300F000C00000AB9A2FEF84E39CE021508040C5
S11301009040E1F700C00000AB982FEF84E39CE03F
S1130110215080409040E1F700C00000AC9A2FEFDE
S113012084E39CE0215080409040E1F700C000004F
S1130130AC982FEF84E39CE0215080409040E1F79D
S113014000C00000AD9A2FEF84E39CE02150804072
S11301509040E1F700C00000AD982FEF84E39CE0ED
S1130160215080409040E1F700C00000AE9A2FEF8C
S113017084E39CE0215080409040E1F700C00000FF
S1130180AE982FEF84E39CE0215080409040E1F74B
S113019000C00000AF9A2FEF84E39CE02150804020
S11301A09040E1F700C00000AF982FEF84E39CE09B
S11301B0215080409040E1F700C000005FCFF894E8
S10501C0FFCF6B
S9030000FC
