:100000000C942A000C9434000C9434000C943400AA
:100010000C9434000C9434000C9434000C94340090
:100020000C9434000C9434000C9434000C94340080
:100030000C9434000C9434000C9434000C94340070
:100040000C9434000C9434000C9434000C94340060
:100050000C94340011241FBECFE5D4E0DEBFCDBF29
:100060000E9436000C9457000C940000BB9A80E06C
:1000700090E030E020E0C39A4FEF50E762E041505B
:1000800050406040E1F700C00000C3984FEF51EED0
:1000900064E0415050406040E1F700C0000001962C
:1000A000883E43E094073CF3832F922FE4CFF894EB
:0200B000FFCF80
:00000001FF
