:100000000C942A000C9447000C9447000C94470071
:100010000C9447000C9447000C9447000C94470044
:100020000C9475000C9461000C9447000C944700EC
:100030000C9447000C9447000C9447000C94470024
:100040000C9447000C9447000C9447000C94470014
:100050000C94470011241FBECFE5D4E0DEBFCDBF16
:1000600010E0A0E6B0E0E4E1F1E002C005900D92FE
:10007000A036B107D9F710E0A0E6B0E001C01D92AC
:10008000A036B107E1F70E9449000C9488000C9457
:1000900000008FEF8ABBBE9AB89814BA81BBC09A91
:1000A0008BEF82BF86E083BF85E88DBD8EEE8CBD71
:1000B0001FBC84E08EBD85E089BF789483B382BB8A
:1000C000FDCF1F920F920FB60F9211248F939F9323
:1000D0008BEF82BF98B380E4892788BB9F918F9173
:1000E0000F900FBE0F901F9018951F920F920FB692
:1000F0000F9211248F9385E88DBD8EEE8CBD8BB34E
:100100008F5F8BBB8F910F900FBE0F901F90189534
:04011000F894FFCF91
:00000001FF
