S014000044656D6F2050726F6A6563742E7372656394
S113000012C024C023C022C021C020C01FC01EC0F3
S11300101DC01CC01BC01AC019C018C017C016C010
S113002015C014C013C011241FBECFE5D4E0DEBF39
S1130030CDBF10E0A0E6B0E0EAEBF3E002C005902B
S11300400D92A83DB107D9F702D0B5C1D9CF0F930E
S11300501F93CF93DF9380E046D160E081E079D0B5
S113006080EA90E0A5D061E080E02CD189EA90E0BC
S11300709FD0C0E0D0E000E010E061E089E022D150
S113008063E070E0CE01BFD061E08CE01BD184EB73
S113009090E08ED0C8010197F1F7C8010197F1F7FC
S11300A02196C436D10549F742E320E030E0C90186
S11300B00197F1F74150D9F760E081E04AD042E37B
S11300C020E030E0C9010197F1F74150D9F787EBFF
S11300D090E06ED02FEF80E792E021508040904076
S11300E0E1F700C0000061E080E0ECD086EC90E035
S11300F05FD080E090E0DF91CF911F910F91089540
S113010081B3877881BBC09AC29800C000C0979A17
S113011000C000C080B38695869586958295807FC1
S113012000C000C0979892E09A95F1F700C0979AA2
S113013000C000C090B300C000C0979892E09A95A8
S1130140F1F700C088231CF3C09881B3886781BB92
S11301500895282F22952F708F70611102C0C298C4
S113016001C0C29A00C000C0979A92B3220F220F16
S1130170220F9778922B92BB92E09A95F1F700C0E8
S1130180979892E09A95F1F700C0979A92B3880FE6
S1130190880F880F9778892B82BB82E08A95F1F7C4
S11301A000C0979892E09A95F1F700C0A9DF0895EE
S11301B00F931F93CF93DF938C01FC0180818823DD
S11301C0E9F0853291F4E8012196F80181818053A8
S11301D0883018F461E0BDDF0BC061E085E2B9DF6F
S11301E061E0F8018181B5DF03C061E0B2DFE801BD
S11301F08E010F5F1F4F89818111E3CFDF91CF9172
S11302001F910F910895EF92FF920F931F93CF9335
S1130210DF9300D000D01F92CDB7DEB77B01FE0183
S1130220319625E0DF011D922A95E9F7009759F0F0
S1130230FE0136962AE030E0B90196D08293862FEB
S1130240972F0097C9F7BFEFEB16FB0669F42981D6
S113025021110FC0FE01329600E010E00F5F1F4F26
S113026021912223D9F307C005E010E00E191F09DC
S113027002C000E010E099231CF461E08DE269DF24
S1130280053011059CF4E1E0F0E0EC0FFD1F0E0FCA
S11302901F1F7E01F6E0EF0EF11CD8018D918D0138
S11302A061E0805D56DF0E151F05B9F70F900F90C2
S11302B00F900F900F90DF91CF911F910F91FF90AE
S11302C0EF900895843170F4623031F0633031F08E
S11302D0613029F4806403C08C5E01C08C5A60E0F4
S11302E0806837DF08950F931F93CF93DF93C82F50
S11302F08FE59AEE0197F1F700C0000081B388679B
S113030081BB8F9ABA9AB89A82B3877882BB97983E
S1130310C098C29800C00000979A949A92E09A9567
S1130320F1F700C0979882E08A95F1F700C0E8DE03
S113033060E08C2F8C600DDF60E088E20ADF60E013
S113034080E407DFC0E6D0E000EA10E061E08991D4
S113035000DFC017D107D1F760E080E0B3DFDF91A1
S1130360CF911F910F91089597FB072E16F40094D7
S113037006D077FD08D00BD007FC05D03EF490954D
S113038081959F4F0895709561957F4F0895AA1B9D
S1130390BB1B51E107C0AA1FBB1FA617B70710F06C
S11303A0A61BB70B881F991F5A95A9F7809590959E
S10D03B0BC01CD010895F894FFCFBD
S11303BA0E11111111111F000E111111111F1F001D
S11303CA0E1111111F1F1F000E11111F1F1F1F00D5
S11303DA0E111F1F1F1F1F000E1F1F1F1F1F1F008D
S11303EA1F0E0404040404001F0E0E040404040073
S11303FA436F6E6772617473004C6F6164696E67F0
S113040A2E2E2E00252000437573746F6D204368C9
S113041A61722121210025302531253225332534E5
S10B042A2535253625370000B5
S9030000FC
