:100000000C942A000C9434000C9434000C943400AA
:100010000C9434000C9434000C9434000C94340090
:100020000C9434000C9434000C9434000C94340080
:100030000C9434000C9434000C9434000C94340070
:100040000C9434000C9434000C9434000C9436005E
:100050000C94340011241FBECFE5D4E0DEBFCDBF29
:100060000E9445000C9455000C9400001F920F92C2
:100070000FB60F9211248F9388B3809588BB8F9110
:100080000F900FBE0F901F9018958FEF87BB88BB06
:1000900083B7836083BF83B7886083BF89B782607B
:0E00A00089BF8DE78CBF7894FFCFF894FFCF17
:00000001FF
