:1000000012C02CC02BC02AC029C028C027C026C0BF
:1000100025C024C023C022C021C020C01FC01EC0D4
:100020001DC01CC01BC011241FBECFE5D4E0DEBF25
:10003000CDBF10E0A0E6B0E0E8E2F6E002C0059037
:100040000D92A839B107D9F720E0A8E9B0E001C0C6
:100050001D92AF39B207E1F708D1E4C2D1CF0ED279
:1000600054D22FE788E391E0215080409040E1F79F
:1000700000C000005BD22FE788E391E02150804070
:100080009040E1F700C0000048D12FE788E391E0FD
:10009000215080409040E1F700C000000895CF93C8
:1000A000DF931F92CDB7DEB7BE016F5F7F4F80E059
:1000B000F2D069816F77698380E013D10F90DF916F
:1000C000CF910895CF93DF931F92CDB7DEB7BE01D6
:1000D0006F5F7F4F82E0DFD069816F7B698382E051
:1000E00000D10F90DF91CF91089580E690E065D226
:1000F00061E080E00DD28AE690E05FD208956EE97B
:1001000070E080E0C8D06DE970E081E0C4D068E9BB
:1001100070E082E0C0D06AE970E083E0BCD069E9B9
:1001200070E084E0B8D06CE970E085E0B4D06BE9B1
:1001300070E086E0B0D0089580919E00982F92954F
:100140009F70990F292F220F220F920F8F70980FF7
:1001500090939E0080919D00982F92959F70990F8B
:10016000292F220F220F920F8F70980F90939D00CE
:1001700080919800982F92959F70990F292F220FA8
:10018000220F920F8F70980F9093980080919B0090
:10019000982F92959F70990F292F220F220F920F5F
:1001A0008F70980F90939B0080919900982F929553
:1001B0009F70990F292F220F220F920F8F70980F87
:1001C0009093990080919C00982F92959F70990F21
:1001D000292F220F220F920F8F70980F90939C005F
:1001E000089560E081E094D18091990062E070E030
:1001F00090E09FD160E084E08BD180919C0062E030
:1002000070E090E096D160E089E082D180919B001F
:1002100062E070E090E08DD160E08CE079D1809177
:100220009A0090E0880F991F880F991F89589F4F57
:10023000C4D161E084E06CD18091980062E070E00C
:1002400090E077D161E087E063D180919D0062E02A
:1002500070E090E06ED161E08AE05AD180919E001A
:1002600062E070E090E065D10895F9DE18DF2ADFE2
:100270003CDF81B380E481BB8FE782BB40DF5CDF82
:10028000B0DF2FEF87E893E1215080409040E1F705
:1002900000C00000F3CF0F931F93CF93C82F8B01A3
:1002A00045D080ED4FD0882389F08C2F4BD0882308
:1002B00079F03CD081ED46D0882361F060E0C80140
:1002C0005AD0882349F038D081E007C080E005C0CB
:1002D00080E003C080E001C080E0CF911F910F91CA
:1002E0000895CF93DF93C82FD62F20D080ED2AD04A
:1002F000882359F08C2F26D0882349F08D2F22D0C7
:10030000882339F019D081E005C080E003C080E087
:1003100001C080E0DF91CF91089582E080B981B182
:10032000836081B986B7846086BF089584EA86BFFA
:1003300006B607FEFDCF089584E986BF06B604FC25
:10034000FDCF089583B984E886BF06B607FEFDCFCA
:1003500081B1887F883159F081B1887F883249F036
:1003600091B1987F81E0903429F080E0089581E098
:10037000089581E00895FC01662321F096B790640A
:1003800096BF03C096B79F7B96BF96B7906896BFFF
:1003900006B607FEFDCF91B1987F983521F091B157
:1003A000987F903521F483B1808381E0089580E0C7
:1003B0000895882314F4A89A01C0A89886FF02C063
:1003C000A99A01C0A99885FF02C0AA9A01C0AA985B
:1003D00084FF02C0AB9A0895AB980895CF93C82FBD
:1003E000807FE7DFAE9AAC9A8FEC97E00197F1F748
:1003F00000C00000AC98AE988FEC97E00197F1F741
:1004000000C000008C2F8295807FD3DFAE9AAC9A1B
:100410008FEC97E00197F1F700C00000AC98AE9820
:100420008FEC97E00197F1F700C00000CF9108959D
:10043000CF93C82F807FBDDFAC9A8FEC97E00197F8
:10044000F1F700C00000AC988FEC97E00197F1F74E
:1004500000C000008C2F8295807FABDFAC9A8FECC0
:1004600097E00197F1F700C00000AC988FEC97E09F
:100470000197F1F700C00000CF9108958FE295E752
:100480000197F1F700C0000080E093DFAE98AD98CF
:10049000AC98A39AA29AA19AA09AA69AA59AA49A6D
:1004A00080E387DFAC9A8FEC97E00197F1F700C00B
:1004B0000000AC988FEC97E00197F1F700C00000C6
:1004C00080E377DFAC9A8FEC97E00197F1F700C0FB
:1004D0000000AC988FEC97E00197F1F700C00000A6
:1004E00080E267DFAC9A8FEC97E00197F1F700C0EC
:1004F0000000AC988FEC97E00197F1F700C0000086
:1005000088E296DF8CE094DF089581E091DF089522
:10051000623031F0633031F0613029F4805C03C027
:100520008C5E01C08C5A806883DF08958CE080DF88
:100530000895EF92FF920F931F93CF93DF9300D014
:1005400000D01F92CDB7DEB77B01FE01319625E0CA
:10055000DF011D922A95E9F7009751F035962AE0C0
:1005600030E0B90138D08293862F972F0097C9F7D2
:1005700005E010E00E191F090530110594F4E1E0C3
:10058000F0E0EC0FFD1F0E0F1F1F7E01F6E0EF0ED7
:10059000F11CD8018D918D01805D20DF0E151F05A6
:1005A000C1F70F900F900F900F900F90DF91CF91A8
:1005B0001F910F91FF90EF900895CF93DF93EC017F
:1005C0008881882329F0219609DF89918111FCCF48
:1005D000DF91CF91089597FB072E16F4009406D073
:1005E00077FD08D00BD007FC05D03EF4909581959F
:1005F0009F4F0895709561957F4F0895AA1BBB1B6F
:1006000051E107C0AA1FBB1FA617B70710F0A61B12
:10061000B70B881F991F5A95A9F780959095BC0133
:08062000CD010895F894FFCF0D
:100628002020202F20202F323000202020202020A2
:100638003A20203A2020004E554C0053554E004D8C
:100648004F4E005455450057454400544855004600
:08065800524900534154000017
:00000001FF
