:100000000C94AB000C94C8000C94C8000C94C8006D
:100010000C94C8000C94C8000C94C8000C94C80040
:100020000C94C8000C94C8000C94C8000C94C80030
:100030000C94C8000C94C8000C94C8000C94C80020
:100040000C94C8000C94C8000C94C8000C94C80010
:100050000C94C8006E616E00696E660000407A10F4
:10006000F35A00A0724E18090010A5D4E80000E869
:100070007648170000E40B54020000CA9A3B0000C7
:1000800000E1F505000080969800000040420F0056
:100090000000A08601000000102700000000E80317
:1000A000000000006400000000000A0000000000E2
:1000B0000100000000002C76D888DC674F0823DFA1
:1000C000C1DFAE59E1B1B796E5E3E453C63AE65174
:1000D000997696E8E6C28426EB898C9B62ED407C9B
:1000E0006FFCEFBC9C9F40F2BAA56FA5F490055A37
:1000F0002AF75C936B6CF9676DC11BFCE0E40D475C
:10010000FEF520E6B500D0ED902E0300943577057E
:100110000080841E080000204E0A000000C80C3336
:100120003333330F986E12831141EF8D2114893BC5
:10013000E65516CFFEE6DB18D1844B381BF77C1D45
:10014000901DA4BBE424203284725E228100C9F198
:1001500024ECA1E53D2711241FBECFE5D4E0DEBF8E
:10016000CDBF10E0A0E6B0E0EAE6F1E102C0059004
:100170000D92A836B107D9F720E0A8E6B0E001C09B
:100180001D92A537B207E1F70E94DD000C94B30879
:100190000C9400003E9A379A86B1876086B908951C
:1001A00097B1907E97B997B18F71982B97B9369A7E
:1001B0003699FECF84B195B108950E94CA000E947D
:1001C000970100E610E0CEE6D0E080E00E94D0008B
:1001D00090936D0080936C0060E080E00E94E401E9
:1001E00064E070E080916C0090916D000E94F301DA
:1001F00060916C0070916D0080E090E00E94480278
:100200002BE43CE340EA5BE30E948502262F372F74
:10021000462F572F682F792F40936800509369001D
:1002200060936A0070936B009F938F933F932F931B
:100230001F930F93DF93CF930E94330861E080E018
:100240000E94E401CE010E9439028DB79EB7089644
:100250000FB6F8949EBF0FBE8DBFB7CF882314F49E
:10026000AF9A01C0AF9886FF02C0AE9A01C0AE98A7
:1002700085FF02C0AD9A01C0AD9884FF02C0AC9A60
:100280000895AC980895CF93C82F807F0E942E01C7
:10029000949A969A8FEC97E00197F1F700C00000CE
:1002A000969894988FEC97E00197F1F700C00000C2
:1002B0008C2F8295807F0E942E01949A969A8FECC3
:1002C00097E00197F1F700C00000969894988FECA2
:1002D00097E00197F1F700C00000CF910895CF9308
:1002E000C82F807F0E942E01969A8FEC97E001978D
:1002F000F1F700C0000096988FEC97E00197F1F7B6
:1003000000C000008C2F8295807F0E942E01969A5B
:100310008FEC97E00197F1F700C0000096988FEC02
:1003200097E00197F1F700C00000CF9108958FE2A8
:1003300095E70197F1F700C0000080E00E942E01D0
:10034000949895989698A49AA59AA69AA79A8C9A02
:100350008D9A8E9A80E30E942E01969A8FEC97E0F8
:100360000197F1F700C0000096988FEC97E0019795
:10037000F1F700C0000080E30E942E01969A8FECF6
:1003800097E00197F1F700C0000096988FEC97E096
:100390000197F1F700C0000080E20E942E01969ABA
:1003A0008FEC97E00197F1F700C0000096988FEC72
:1003B00097E00197F1F700C0000088E20E946F010A
:1003C0008CE00E946F010895623031F0633031F0AB
:1003D000613029F4805C03C08C5E01C08C5A806857
:1003E0000E946F010895EF92FF920F931F93CF9396
:1003F000DF9300D000D01F92CDB7DEB77B01FE01A6
:10040000319625E0DF011D922A95E9F7009759F012
:1004100035962AE030E0B9010E94B4068293862F17
:10042000972F0097C1F705E010E00E191F0905305E
:1004300011059CF4E1E0F0E0EC0FFD1F0E0F1F1F13
:100440007E01F6E0EF0EF11CD8018D918D01805DEB
:100450000E9443010E151F05B9F70F900F900F90E2
:100460000F900F90DF91CF911F910F91FF90EF9020
:100470000895CF93DF93EC018881882331F0219692
:100480000E94430189918111FBCFDF91CF910895A3
:10049000E89409C097FB3EF490958095709561951E
:1004A0007F4F8F4F9F4F9923A9F0F92F96E9BB27D4
:1004B0009395F695879577956795B795F111F8CF50
:1004C000FAF4BB0F11F460FF1BC06F5F7F4F8F4FBB
:1004D0009F4F16C0882311F096E911C0772321F0B1
:1004E0009EE8872F762F05C0662371F096E8862F49
:1004F00070E060E02AF09A95660F771F881FDAF7A0
:10050000880F9695879597F908950BD078C069D094
:1005100028F06ED018F0952309F05AC05FC011245E
:10052000A2C07ED0A0F3959FD1F3950F50E0551F48
:10053000629FF001729FBB27F00DB11D639FAA2738
:10054000F00DB11DAA1F649F6627B00DA11D661F87
:10055000829F2227B00DA11D621F739FB00DA11DA8
:10056000621F839FA00D611D221F749F3327A00D62
:10057000611D231F849F600D211D822F762F6A2FFE
:1005800011249F5750408AF0E1F088234AF0EE0F83
:10059000FF1FBB1F661F771F881F91505040A9F790
:1005A0009E3F510570F014C05EC05F3FECF3983E73
:1005B000DCF3869577956795B795F795E7959F5FF7
:1005C000C1F7FE2B880F911D9695879597F9089591
:1005D00097F99F6780E870E060E008959FEF80ECF6
:1005E000089500240A941616170618060906089599
:1005F00000240A9412161306140605060895092EFF
:100600000394000C11F4882352F0BB0F40F4BF2B6D
:1006100011F460FF04C06F5F7F4F8F4F9F4F0895AD
:1006200057FD9058440F551F59F05F3F71F04795A3
:10063000880F97FB991F61F09F3F79F08795089588
:10064000121613061406551FF2CF4695F1DF08C0A7
:10065000161617061806991FF1CF869571056105C4
:1006600008940895E894BB2766277727CB0197F96C
:100670000895A3E1B0E0EFE3F3E00C94C8067C0139
:100680001B016A01FC0117821682838181FF66C308
:10069000BE016F5F7F4F4B01F7019381F10193FD25
:1006A000859193FF81911F01882309F453C38532FB
:1006B00039F493FD859193FF81911F01853239F4BF
:1006C000B70190E00E94010856016501E5CF10E0F6
:1006D000512C20E02032A0F48B3269F030F48032CB
:1006E00059F0833269F420612CC08D3239F08033A7
:1006F00039F4216026C02260246023C0286021C014
:1007000027FD27C030ED380F3A3078F426FF06C0B9
:10071000FAE01F9F300D1124132F13C06AE0569E7C
:10072000300D1124532E20620CC08E3221F426FD90
:1007300011C3206406C08C3611F4206802C08836CC
:1007400041F4F10193FD859193FF81911F01811186
:10075000C1CF9BEB980F933018F42061805E06C0E8
:100760009BE9980F933008F0AAC12F7E26FF16E070
:100770002F73722E853621F4F22FF0647F2E08C07D
:10078000863621F4622F6068762E02C01111115056
:1007900077FE07C01C3348F444244394410E27E0FD
:1007A0000BC0183030F4212F06C027E04CE3442E54
:1007B00003C027E017E0412C560174E0A70EB11CDE
:1007C000F6016081718182819381042DA4010E94D0
:1007D00013076C01098100FF02C003FF06C071FC12
:1007E00007C072FC08C0612C08C03DE2632E05C042
:1007F0002BE2622E02C090E2692E802F8C7099F15C
:10080000662011F084E001C083E0851510F0512CC2
:100810000BC0581A73FC08C0B70180E290E00E9438
:1008200001085A94C9F7F3CF662029F0B701862D45
:1008300090E00E94010803FD03C008E510E002C03B
:1008400004E510E0F72DF0717F2EF80184918823E4
:1008500009F476C271108052B70190E00E9401083D
:100860000F5F1F4FF2CF77FE0FC04C0C04FF04C088
:100870008A81813309F44A94141474F5F8E0F4156C
:1008800078F588E0482E2CC076FC2AC0812F90E0B5
:100890008C159D059CF06CEFC6166FEFD60674F0B4
:1008A000772D7068772E0AC0E2E0F0E0EC0FFD1FB4
:1008B000E10FF11D8081803319F411501111F4CF33
:1008C00077FE0EC044244394410E812F90E0C81659
:1008D000D9062CF41C1904C04424439401C010E030
:1008E00077FE07C01C141D043CF496012F5F3F4F98
:1008F00005C025E030E002C021E030E0662011F0C4
:100900002F5F3F4F112331F0412F50E04F5F5F4F7A
:10091000240F351F452D50E02417350714F4521AC3
:1009200001C0512C872D897049F4552039F0B70149
:1009300080E290E00E9401085A94F7CF662029F0E7
:10094000B701862D90E00E94010873FC09C0552074
:1009500039F0B70180E390E00E9401085A94F7CF84
:1009600077FE5FC09C2D8D2DD7FE02C090E080E009
:10097000692E782E40E050E0C601841991099D87C8
:100980008C87960126193709280D391D812F90E093
:10099000EE27FF27E81BF90BFF87EE87FFEF6F16A7
:1009A0007F0669F4B7018EE290E02B8B3A8B488B7F
:1009B000598B0E940108598948893A892B89C614A4
:1009C000D70454F06C857D85661577052CF4F90104
:1009D000E40FF51F818101C080E371E0671A71089F
:1009E0004F5F5F4FEE85FF856E167F066CF0B70197
:1009F00090E02B8B3A8B488B598B0E9401082B89F6
:100A00003A8948895989CACF6C147D0439F49A818E
:100A1000963318F4953311F404FF81E3B70190E0A5
:100A20004BC08A81813309F00F7EB70190E00E94AC
:100A30000108111105C074FE18C085E490E017C0CC
:100A4000B7018EE290E00E94010882E06624639480
:100A5000680EF401E80FF11D8081B70190E00E945B
:100A60000108115041F3862DF1CF85E690E0B701E2
:100A70000E940108D7FC05C0C114D10439F404FF59
:100A800005C0D194C194D1088DE201C08BE2B701B9
:100A900090E00E94010880E36AE0C616D1042CF0C1
:100AA0008F5FFAE0CF1AD108F7CFB70190E00E942C
:100AB0000108B701C601C0960E94010841C18336F2
:100AC00031F0833779F0833509F058C021C05601E1
:100AD00072E0A70EB11CF6018081898301E010E06D
:100AE000640114C05601F2E0AF0EB11CF601C080E3
:100AF000D18026FF03C0612F70E002C06FEF7FEF4F
:100B0000C6012B8B0E94F6078C012B892F7715C00D
:100B10005601F2E0AF0EB11CF601C080D18026FF75
:100B200003C0612F70E002C06FEF7FEFC6012B8B17
:100B30000E94EB078C012B892068722E23FD1AC0BE
:100B4000852D90E008171907A8F4B70180E290E01E
:100B50000E9401085A94F4CFF60177FC859177FE44
:100B600081916F01B70190E00E94010851105A94E1
:100B7000015011090115110579F7E2C0843611F011
:100B8000893651F5560127FF09C0F4E0AF0EB11CBC
:100B9000F60160817181828193810AC0F2E0AF0E1B
:100BA000B11CF60160817181882777FD8095982FAF
:100BB000022F0F7697FF08C09095809570956195EC
:100BC0007F4F8F4F9F4F00682AE030E0A4010E94C2
:100BD0005508C82EC8183EC0022F853721F40F7E55
:100BE0002AE030E01DC0097F8F3691F018F4883577
:100BF00059F0B0C0803719F0883711F0ABC00061F0
:100C000004FF09C0046007C024FF08C0066006C0D6
:100C100028E030E005C020E130E002C020E132E011
:100C2000560107FF09C0F4E0AF0EB11CF601608168
:100C300071818281938108C0F2E0AF0EB11CF60190
:100C40006081718180E090E0A4010E945508C82E67
:100C5000C8180F7706FF0BC0202F2E7FC11650F447
:100C600004FF0AC002FD08C0202F2E7E05C0DC2C28
:100C7000202F03C0DC2C01C0D12E24FF0DC0FE01AB
:100C8000EC0DF11D8081803311F4297E09C022FF13
:100C900006C0D394D39404C0822F867809F0D394ED
:100CA00023FD13C020FF06C01C2DD51418F4150D0C
:100CB0001D19D52CD51468F4B70180E290E02B8B78
:100CC0000E940108D3942B89F5CFD51410F45D1838
:100CD00001C0512C24FF12C0B70180E390E02B8BA0
:100CE0000E9401082B8922FF17C021FF03C088E55D
:100CF00090E002C088E790E0B7010CC0822F8678B0
:100D000059F021FD02C080E201C08BE227FD8DE297
:100D1000B70190E00E940108C11638F4B70180E3E2
:100D200090E00E9401081150F7CFCA94F401EC0D35
:100D3000F11D8081B70190E00E940108C110F5CF3C
:100D4000552009F4C2CCB70180E290E00E9401086E
:100D50005A94F6CFF7018681978102C08FEF9FEFFB
:100D60006396E2E10C94E40697FB072E16F40094D8
:100D700007D077FD09D00E94FF0607FC05D03EF49E
:100D8000909581959F4F0895709561957F4F089537
:100D90002F923F924F925F926F927F928F929F928B
:100DA000AF92BF92CF92DF92EF92FF920F931F9379
:100DB000CF93DF93CDB7DEB7CA1BDB0B0FB6F8942A
:100DC000DEBF0FBECDBF09942A88398848885F846A
:100DD0006E847D848C849B84AA84B984C884DF80DB
:100DE000EE80FD800C811B81AA81B981CE0FD11DBF
:100DF0000FB6F894DEBF0FBECDBFED010895AA1B5C
:100E0000BB1B51E107C0AA1FBB1FA617B70710F0F5
:100E1000A61BB70B881F991F5A95A9F78095909527
:100E2000BC01CD010895283008F027E03327DA010E
:100E3000990F311D87FD916000966105710539F4A8
:100E400032602E5F3D9330E32A95E1F708959F3F8E
:100E500030F080387105610509F03C5F3C5F3D93DF
:100E6000913008F08068911DDF93CF931F930F930B
:100E7000FF92EF92192F987F9695E92F9695969568
:100E8000E90FFF27EA54FF4F99273327EE24FF2469
:100E9000A701E70105900894079428F4360FE71E90
:100EA000F81E491F511D660F771F881F991F069452
:100EB000A1F70590079428F4E70EF81E491F561F66
:100EC000C11D770F881F991F661F0694A1F7059013
:100ED000079428F4F80E491F561FC71FD11D880F0D
:100EE000991F661F771F0694A1F70590079420F4B9
:100EF000490F561FC71FD81F990F661F771F881FDE
:100F00000694A9F784911095177041F0D695C7956E
:100F100057954795F794E7941A95C1F7ECE5F0E0FB
:100F200068941590159135916591959105907FE2A2
:100F30007395E118F10A430B560BC90BD009C0F7A2
:100F4000E10CF11E431F561FC91FD01D7EF47033E4
:100F500011F48A95E6CFE894015030F0080F0AF4B6
:100F60000027021708F4202F2395022F7A3328F048
:100F700079E37D932A95E9F710C07D932A9589F648
:100F8000069497956795379517951794E118F10A88
:100F9000430B560BC90BD00998F023957E9173959E
:100FA0007A3308F070E37C932013B8F77E91706178
:100FB0007D9330F0839571E37D9370E32A95E1F79B
:100FC0001124EF90FF900F911F91CF91DF919927FE
:100FD00087FD90950895FC010590615070400110C7
:100FE000D8F7809590958E0F9F1F0895FC01615052
:100FF000704001900110D8F7809590958E0F9F1F3B
:1010000008950F931F93CF93DF93182F092FEB01B0
:101010008B8181FD03C08FEF9FEF20C082FF10C046
:101020004E815F812C813D81421753077CF4E8811A
:10103000F9819F012F5F3F4F39832883108306C0BA
:10104000E885F985812F0995892B29F72E813F8124
:101050002F5F3F4F3F832E83812F902FDF91CF91C2
:101060001F910F910895AEE0B0E0E9E3F8E00C9431
:10107000D6060D891E8986E08C831A8309838FEF3B
:101080009FE79E838D83AE01475E5F4F6F89788DAA
:10109000CE0101960E943903EF81F885E00FF11F20
:1010A00010822E96E4E00C94F206FA01AA2728306A
:1010B00051F1203181F1E8946F936E7F6E5F7F4F25
:1010C0008F4F9F4FAF4FB1E03ED0B4E03CD0670FA1
:1010D000781F891F9A1FA11D680F791F8A1F911DF4
:1010E000A11D6A0F711D811D911DA11D20D009F444
:1010F00068943F912AE0269F11243019305D319386
:10110000DEF6CF010895462F4770405D4193B3E06E
:101110000FD0C9F7F6CF462F4F70405D4A3318F015
:10112000495D31FD4052419302D0A9F7EACFB4E0C6
:10113000A6959795879577956795BA95C9F700977E
:101140006105710508959B01AC010A2E069457951F
:10115000479537952795BA95C9F7620F731F841F76
:0A116000951FA01D0895F894FFCF1D
:08116A0025322E326C660000F4
:00000001FF
