S01300004C43442044697370616C792E7372656348
S11300000C942A000C943C000C943C000C943C008E
S11300100C943C000C943C000C943C000C943C006C
S11300200C943C000C943C000C943C000C94150182
S11300300C943C000C943C000C943C000C943C004C
S11300400C943C000C943C000C943C000C943C003C
S11300500C943C0011241FBECFE5D8E0DEBFCDBF19
S113006020E0A0E6B0E001C01D92AB36B207E1F794
S11300700E943F010C9496010C940000969A00C0D3
S113008096980895CF93C82F662311F0949A01C0CF
S113009094989598A49AA59AA69AA79AAF98AE9878
S11300A0AD98AC98CC230CF4AF9AC6FDAE9AC5FDBE
S11300B0AD9AC4FDAC9A0E943E00AF98AE98AD983C
S11300C0AC98C3FDAF9AC2FDAE9AC1FDAD9AC0FD16
S11300D0AC9A0E943E00AC9AAD9AAE9AAF9ACF9178
S11300E00895882311F0949A01C09498959AA4983D
S11300F0A598A698A798969A00C09C9902C080E0FB
S113010001C080E19D9980629E9980649F99806876
S1130110969800C0969A00C09C9981609D998260CF
S11301209E9984609F9988609698089580E00E94C3
S113013071008823DCF300C080E00E947100089500
S1130140CF93C82F0E94960060E08C2F0E9442003B
S1130150CF910895611104C080580E94A0000895B1
S113016080540E94A000089581E00E94A000089598
S1130170CF93C82F0E949600CA3049F4803410F4FB
S113018080E401C080E080580E94A00004C061E0C7
S11301908C2F0E944200CF910895CF93DF93EC01FE
S11301A02196FC018081882329F00E94B80089915E
S11301B08111FBCFDF91CF910895CF93C82F8C9AF3
S11301C08D9A8E9AA49AA59AA69AA79AE0EAFFE035
S11301D03197F1F7AD9AAC9A0E943E00E0EEF4E05C
S11301E03197F1F70E943E00E0E1F0E03197F1F73A
S11301F00E943E00E0E1F0E03197F1F7AC980E94F4
S11302003E00E0E1F0E03197F1F788E20E94A000BF
S113021088E00E94A0000E94B40086E00E94A00032
S11302208C2F0E94A000CF9108951F920F920FB6B9
S11302300F9211248F939F93809162009091630099
S11302400196909363008093620080916200909184
S1130250630004976CF080916000909161000196B6
S1130260909361008093600010926300109262008A
S11302709F918F910F900FBE0F901F9018958CE057
S11302800E94DD0083B7856083BF89B7816089BF21
S1130290789480916000909161004AE064E670E097
S11302A00E94610160E080E00E94AA0084E690E080
S11302B00E94CD0087EA91E60197F1F700C00000A3
S11302C0E8CFBB274A3031F4992322F4BDE290955C
S11302D081959F4F0C946D01BB27FB015527AA27DD
S11302E0880F991FAA1FA41710F0A41B83955051BF
S11302F0B9F7A05DAA3308F0A95DA193009779F737
S1130300B111B1931192CB010C948601DC01FC0173
S1130310672F71917723E1F7329704C07C916D9335
S113032070836291AE17BF07C8F30895F894FFCFA6
S9030000FC
