S01C000030322E20427574746F6E20496E746572666163652E737265632B
S11300000C942A000C9434000C9434000C943400A6
S11300100C9434000C9434000C9434000C9434008C
S11300200C9434000C9434000C9434000C9434007C
S11300300C9434000C9434000C9434000C9434006C
S11300400C9434000C9434000C9434000C9434005C
S11300500C94340011241FBECFE5D4E0DEBFCDBF25
S11300600E9436000C946C000C940000A09AA19A93
S11300708A988B98829917C02FE788E391E02150E2
S113008080409040E1F700C00000A89A2FEF89E675
S113009098E1215080409040E1F700C00000A8980A
S11300A0829BFECFE7CF8399E5CF2FE788E391E0EA
S11300B0215080409040E1F700C00000A99A2FEF42
S11300C089E698E1215080409040E1F700C00000AB
S10F00D0A998839BFECFCECFF894FFCFFD
S9030000FC
