:100000000C942A000C9434000C9434000C943400AA
:100010000C9434000C9434000C9434000C94340090
:100020000C9434000C944B000C9434000C94340069
:100030000C9434000C9434000C9434000C94340070
:100040000C9434000C9434000C9434000C94340060
:100050000C94340011241FBECFE5D4E0DEBFCDBF29
:100060000E9436000C945E000C9400008FEF8ABB57
:100070001BBA83B7816083BF89B7816089BF12BE15
:1000800078942FEF81E19AE7215080409040E1F78A
:1000900000C00000F6CF1F920F920FB60F921124EE
:1000A0008F938BB380958BBB12BE88B7816088BF5E
:1000B0008F910F900FBE0F901F901895F894FFCF5F
:00000001FF
