S01D0000627574746F6E5F776974685F696E746572727570742E7372656304
S11300000C942A000C9473000C948A000C944700FE
S11300100C9447000C9447000C9447000C94470040
S11300200C9447000C9447000C9447000C94470030
S11300300C9447000C9447000C9447000C94470020
S11300400C9447000C9447000C9447000C94470010
S11300500C94470011241FBECFE5D4E0DEBFCDBF12
S113006010E0A0E6B0E0E6E4F1E002C005900D92F5
S1130070AA36B107D9F720E0AAE6B0E001C01D9284
S1130080AC36B207E1F70E9449000C94A1000C942D
S113009000008FEF87BB8A988B9885B78A6085BFED
S11300A08BB7806C8BBF789429E030E080916A0034
S11300B090916B000A9724F010926B0010926A00E2
S11300C080916A0090916B00992324F430936B0023
S11300D020936A00E0916A00F0916B00E05AFF4FB0
S11300E0808188BBE3CF1F920F920FB60F92112429
S11300F08F939F9380916A0090916B0001969093E7
S11301006B0080936A009F918F910F900FBE0F90A8
S11301101F9018951F920F920FB60F9211248F9370
S11301209F9380916A0090916B00019790936B006C
S113013080936A009F918F910F900FBE0F901F9034
S10901401895F894FFCFAE
S10D01463F065B4F666D7D077F6F77
S9030000FC
