S014000044656D6F2050726F6A6563742E7372656394
S113000012C02CC02BC02AC029C028C027C026C0BB
S113001025C0BFC123C022C021C020C01FC01EC034
S11300201DC01CC01BC011241FBECFE5D4E0DEBF21
S1130030CDBF10E0A0E6B0E0E0ECFAE002C005902D
S11300400D92AC39B107D9F720E0ACE9B0E001C0BA
S11300501D92AA3AB207E1F756D130C5D1CFCF935A
S1130060DF931F92CDB7DEB7BE016F5F7F4F80E095
S1130070F7D169816F77698380E018D20F90DF919F
S1130080CF910895CF93DF931F92CDB7DEB7BE0112
S11300906F5F7F4F82E0E4D169816F7B698382E087
S11300A005D20F90DF91CF91089569EA70E080E066
S11300B0D7D168EA70E081E0D3D16EE970E082E0E4
S11300C0CFD160EA70E083E0CBD16FE970E084E0E7
S11300D0C7D167EA70E085E0C3D161EA70E086E0E9
S11300E0BFD108958091A900982F92959F70990F80
S11300F0292F220F220F920F8F70980F9093A9002F
S11301008091A800982F92959F70990F292F220F04
S1130110220F920F8F70980F9093A80080919E00E9
S1130120982F92959F70990F292F220F220F920FCB
S11301308F70980F90939E008091A100982F9295B4
S11301409F70990F292F220F220F920F8F70980FF3
S11301509093A10080919F00982F92959F70990F82
S1130160292F220F220F920F8F70980F90939F00C8
S11301708091A700982F92959F70990F292F220F95
S1130180220F920F8F70980F9093A7000895CF932A
S11301906091A900CDEC6C9F212D11242695269504
S11301A0269530E1239FC0011124922F990F292F06
S11301B0220F220F920F691B682B80E077D1609188
S11301C0A8006C9F212D112426952695269530E1B3
S11301D0239FC0011124922F990F292F220F220F40
S11301E0920F691B682B81E061D160919E006C9F26
S11301F0212D112426952695269530E1239FC001B3
S11302001124922F990F292F220F220F920F691B6D
S1130210682B82E04BD16091A00083E047D16091CC
S11302209F006C9F212D112426952695269530E15B
S1130230239FC0011124922F990F292F220F220FDF
S1130240920F691B682B84E031D16091A7006C9FE9
S1130250212D112426952695269530E1239FC00152
S11302601124922F990F292F220F220F920F691B0D
S1130270682B85E01BD16091A1006C9FC12D1124D6
S1130280C695C695C69520E1C29FC0011124CC0F26
S11302909C2F990F990FC90F6C1B682B86E006D110
S11302A03FEF80E792E0315080409040E1F700C09A
S11302B00000CF91089580919E009DEC899F912D1F
S11302C011249695969596959093A200990F292FAF
S11302D0220F220F920F891B8093A300089580910F
S11302E0A8009DEC899F912D11249695969596953D
S11302F09093A400990F292F220F220F920F891B8C
S11303008093A500089587B38FEF87BB88B388BB1C
S113031081B38F6081BB82B382BB83B7846083BFA8
S113032089B7816089BF84E682BF99DEABDE2FE79F
S113033088E391E0215080409040E1F700C0000044
S1130340D1D01092A90085E08093A8008DE080931D
S11303509E008CE080939F0097E09093A000809390
S1130360A7008EE08093A10012DF78942FEF89E636
S113037098E1215080409040E1F700C00000809156
S11303809C00809580939C0090DEACDE94DFA7DF18
S1130390EDCF1F920F920FB60F9211248F93EF930C
S11303A0FF9380919D008F5F80939D00813051F475
S11303B080E182BBE091A200F0E0E357FF4F80812F
S11303C088BB41C08230C1F480919C00882351F0E5
S11303D080E282BBE091A300F0E0E258FF4F80810D
S11303E088BB31C080E282BBE091A300F0E0E35718
S11303F0FF4F808188BB27C08330C1F480919C006B
S1130400882351F080E482BBE091A400F0E0E05A3C
S1130410FF4F808188BB17C080E482BBE091A400B9
S1130420F0E0E159FF4F808188BB0DC0843059F45E
S113043080E882BBE091A500F0E0E357FF4F8081A4
S113044088BB10929D0084E682BF88B7816088BF14
S1130450FF91EF918F910F900FBE0F901F90189501
S11304601F93CF93DF93182FEB0145D080ED4FD02E
S1130470882389F0812F4BD0882379F03CD081EDFB
S113048046D0882361F060E0CE015AD0882349F039
S113049038D081E007C080E005C080E003C080E080
S11304A001C080E0DF91CF911F910895CF93DF9336
S11304B0C82FD62F20D080ED2AD0882359F08C2F36
S11304C026D0882349F08D2F22D0882339F019D0E3
S11304D081E005C080E003C080E001C080E0DF91DE
S11304E0CF91089582E080B981B1836081B986B7E4
S11304F0846086BF089584EA86BF06B607FEFDCFF2
S1130500089584E986BF06B604FCFDCF089583B937
S113051084E886BF06B607FEFDCF81B1887F8831A7
S113052059F081B1887F883249F091B1987F81E098
S1130530903429F080E0089581E0089581E00895E1
S1130540662321F026B7206426BF03C026B72F7B7D
S113055026BF26B7206826BF06B607FEFDCF21B109
S1130560287F283521F021B1287F203529F423B1B3
S1130570FC01208381E0089580E00895ACE0B0E0C0
S1130580E3ECF2E064C27C016B018A01FC01178296
S11305901682838181FFB0C1CE0101964C01F7011F
S11305A09381F60193FD859193FF81916F018823D7
S11305B009F49EC1853239F493FD859193FF8191AD
S11305C06F01853221F4B70190E0B1D1E8CF512C0D
S11305D0312C20E02032A0F48B3269F030F48032E8
S11305E059F0833269F420612CC08D3239F08033A4
S11305F039F4216026C02260246023C0286021C011
S113060027FD27C030ED380F3A3078F426FF06C0B6
S1130610FAE05F9E300D1124532E13C08AE0389EF9
S1130620300D1124332E20620CC08E3221F426FDAD
S11306305FC1206406C08C3611F4206802C088367D
S113064041F4F60193FD859193FF81916F0181112E
S1130650C1CF982F9F7D9554933028F40C5F1F4F82
S1130660FFE3F9830DC0833631F0833771F08335AE
S113067009F057C021C0F801808189830E5F1F4FA4
S113068044244394512C540114C03801F2E06F0EF9
S1130690711CF801A080B18026FF03C0652D70E0B5
S11306A002C06FEF7FEFC5012C8736D12C01830187
S11306B02C852F77222E16C03801F2E06F0E711CA4
S11306C0F801A080B18026FF03C0652D70E002C050
S11306D06FEF7FEFC5012C8714D12C012C85206886
S11306E0222E830123FC19C0832D90E0481659065D
S11306F0A0F4B70180E290E01AD13A94F5CFF50165
S113070027FC859127FE81915F01B70190E00FD10D
S113071031103A94F1E04F1A51084114510479F719
S1130720DEC0843611F0893631F5F80127FF07C0A1
S113073060817181828193810C5F1F4F08C0608149
S11307407181882777FD8095982F0E5F1F4F2F7634
S1130750B22E97FF09C090958095709561957F4F53
S11307608F4F9F4F2068B22E2AE030E0A40111D1B0
S1130770A82EA81843C0853729F42F7EB22E2AE06C
S113078030E025C0F22FF97FBF2E8F36C1F018F468
S1130790883579F0ADC0803719F0883721F0A8C0CA
S11307A02F2F2061B22EB4FE0DC08B2D8460B82E85
S11307B009C024FF0AC09F2F9660B92E06C028E006
S11307C030E005C020E130E002C020E132E0F80171
S11307D0B7FE07C060817181828193810C5F1F4FD6
S11307E006C06081718180E090E00E5F1F4FA4011C
S11307F0D0D0A82EA818FB2DFF77BF2EB6FE0BC0B5
S11308002B2D2E7FA51450F4B4FE0AC0B2FC08C0F0
S11308102B2D2E7E05C07A2C2B2D03C07A2C01C0E3
S1130820752C24FF0DC0FE01EA0DF11D808180337B
S113083011F4297E09C022FF06C07394739404C086
S1130840822F867809F0739423FD12C020FF06C01E
S11308505A2C731418F4530C5718732C731460F433
S1130860B70180E290E02C8762D073942C85F6CF98
S1130870731410F4371801C0312C24FF11C0B701D0
S113088080E390E02C8753D02C8522FF16C021FFF3
S113089003C088E590E002C088E790E0B7010CC08F
S11308A0822F867851F021FD02C080E201C08BE2E4
S11308B027FD8DE2B70190E03AD0A51430F4B701DA
S11308C080E390E034D05A94F8CFAA94F401EA0D6E
S11308D0F11D8081B70190E02AD0A110F6CF33201A
S11308E009F45DCEB70180E290E021D03A94F7CFCD
S11308F0F7018681978102C08FEF9FEF2C96E2E18A
S1130900C2C0FC010590615070400110D8F7809579
S113091090958E0F9F1F0895FC01615070400190C7
S11309200110D8F7809590958E0F9F1F08950F930F
S11309301F93CF93DF93182F092FEB018B8181FD38
S113094003C08FEF9FEF20C082FF10C04E815F81F4
S11309502C813D81421753077CF4E881F9819F0182
S11309602F5F3F4F39832883108306C0E885F985BC
S1130970812F0995892B29F72E813F812F5F3F4FC6
S11309803F832E83812F902FDF91CF911F910F9161
S11309900895FA01AA27283051F1203181F1E89411
S11309A06F936E7F6E5F7F4F8F4F9F4FAF4FB1E05E
S11309B03ED0B4E03CD0670F781F891F9A1FA11D59
S11309C0680F791F8A1F911DA11D6A0F711D811D5A
S11309D0911DA11D20D009F468943F912AE0269F1F
S11309E011243019305D3193DEF6CF010895462F7E
S11309F04770405D4193B3E00FD0C9F7F6CF462F5F
S1130A004F70405D4A3318F0495D31FD40524193C7
S1130A1002D0A9F7EACFB4E0A69597958795779584
S1130A206795BA95C9F700976105710508959B010B
S1130A30AC010A2E06945795479537952795BA9594
S1130A40C9F7620F731F841F951FA01D08952F926D
S1130A503F924F925F926F927F928F929F92AF924A
S1130A60BF92CF92DF92EF92FF920F931F93CF9397
S1130A70DF93CDB7DEB7CA1BDB0B0FB6F894DEBF2E
S1130A800FBECDBF09942A88398848885F846E8454
S1130A907D848C849B84AA84B984C884DF80EE809E
S1130AA0FD800C811B81AA81B981CE0FD11D0FB6A7
S1130AB0F894DEBF0FBECDBFED010895F894FFCFCB
S1130AC0BFB0DBF9F4EDEFB8FFFD00000000003F1C
S1130AD0305B79746D6F387F7D0000000000BF8645
S1130AE0DBCFE6EDFD87FFEF00000000003F065B73
S10F0AF04F666D7D077F6F000000000062
S9030000FC
