S014000044656D6F2050726F6A6563742E7372656394
S113000012C02CC02BC02AC029C028C027C026C0BB
S113001025C024C023C022C021C020C01FC01EC0D0
S11300201DC01CC01BC011241FBECFE5D4E0DEBF21
S1130030CDBF10E0A0E6B0E0EAE6F3E102C005902F
S11300400D92AE3AB107D9F710E0AEEAB0E001C0C4
S11300501D92A03CB107E1F77ED285C9D1CFF7D775
S11300603DD88FE798E3A1E081509040A040E1F7AC
S113007000C00000BDD88FE798E3A1E08150904014
S1130080A040E1F700C000002DD78FE798E3A1E07E
S113009081509040A040E1F700C000000895CF9344
S11300A0DF930F92CDB7DEB780E0BE016F5F7F4F65
S11300B0D7D669816F77698380E0F8D60F90DF9196
S11300C0CF910895CF93DF930F92CDB7DEB782E03F
S11300D0BE016F5F7F4FC4D669816F7B698382E005
S11300E0E5D60F90DF91CF91089584E6EFE1FEE429
S11300F03197F1F700C000008150C1F7089580E600
S113010090E0E3D880E061E004D88AE690E0DDD8AE
S1130110089580E06FEB70E0A3D681E06EEB70E0B1
S11301209FD682E063EB70E09BD683E069EB70E0DE
S113013097D684E065EB70E093D685E06DEB70E0D4
S11301408FD686E06AEB70E08BD608952091BF00CD
S1130150822F992787FD9095807F9070959587953C
S1130160959587959595879595958795880F982F5B
S1130170990F990F890F2F70820F8093BF002091E0
S1130180BE00822F992787FD9095807F907095956A
S11301908795959587959595879595958795880FD6
S11301A0982F990F990F890F2F70820F8093BE009B
S11301B02091B300822F992787FD9095807F9070BE
S11301C09595879595958795959587959595879513
S11301D0880F982F990F990F890F2F70820F809392
S11301E0B3002091BA00822F992787FD9095807FD4
S11301F090709595879595958795959587959595FF
S11302008795880F982F990F990F890F2F70820F58
S11302108093BA002091B500822F992787FD90958D
S1130220807F9070959587959595879595958795F9
S113023095958795880F982F990F990F890F2F708F
S1130240820F8093B5002091BD00822F992787FDEE
S11302509095807F907095958795959587959595C0
S1130260879595958795880F982F990F990F890FE2
S11302702F70820F8093BD00089581E060E049D71C
S11302808091B500992787FD909562E070E0D5D7FD
S113029084E060E03ED78091BD00992787FD90956A
S11302A062E070E0CAD789E060E033D78091BA0099
S11302B0992787FD909562E070E0BFD78CE060E0FD
S11302C028D78091B900992787FD9095880F991FA9
S11302D0880F991F82579F4FF8D784E061E019D7A0
S11302E08091B300992787FD909562E070E0A5D7CF
S11302F087E061E00ED78091BE00992787FD909535
S113030062E070E09AD78AE061E003D78091BF0091
S1130310992787FD909562E070E08FD70895CF9379
S11303208091BF00CAE06C2FDED7682F6295607F92
S1130330692B80E0BBD58091BE006C2FD4D7682F89
S11303406295607F692B81E0B1D58091B3006C2FF9
S1130350CAD7682F6295607F692B82E0A7D583E0B6
S11303606091B900A3D58091B5006C2FBCD7682FDC
S11303706295607F692B84E099D58091BD006C2FD4
S1130380B2D7682F6295607F692B85E08FD5809105
S1130390BA006C2FA8D7682F6295607F692B86E01E
S11303A085D58FEF90E7A2E081509040A040E1F71F
S11303B000C00000CF910895E199FECF9FBB8EBB92
S11303C0E09A8DB30895EF92FF920F931F93CF930A
S11303D0DF938C017B0108C0E8012196C801ECDFA2
S11303E0F70181937F018E01C801E6DF8332A1F713
S11303F0F7011082DF91CF911F910F91FF90EF9041
S11304000895E199FECF9FBB8EBB6DBBE29AE19A42
S113041008950F931F93CF93DF93FB0160816623AD
S113042071F08F010F5F1F4F01C0CE01EC012196C7
S1130430E8DFF80161918F016623B9F701C0EC018F
S1130440CE0163E2DEDFDF91CF911F910F9108951A
S1130450809913C0809BFECF8FEF93EFA1E0815072
S11304609040A040E1F700C0000081E08093AE001E
S113047082E060E04ED6B9D60895819935C0819B5B
S1130480FECF8FEF93EFA1E081509040A040E1F7C1
S113049000C000008BE08093AE0020D683E060E0D3
S11304A038D687E790E011D787E061E032D682E85A
S11304B090E00BD785E061E02CD68091BB009927B2
S11304C087FD909562E070E0B8D688E061E021D6BF
S11304D08091B400992787FD909562E070E0ADD6D5
S11304E084E08FD682D60895829934C0829BFECF51
S11304F08FEF93EFA1E081509040A040E1F700C05E
S1130500000085E18093AE00E9D583E060E001D688
S113051084E890E0DAD687E061E0FBD582E890E0F9
S1130520D4D685E061E0F5D58091B800992787FDA0
S1130530909562E070E081D688E061E0EAD5809130
S1130540BC00992787FD909562E070E076D684E040
S113055058D64BD6089583DDA2DDB4DDD0DD81B35A
S113056080E481BB8FE782BB80E090E025DF80934D
S1130570BB0081E090E020DF8093B40082E090E053
S11305801BDF8093B80083E090E016DF8093BC000B
S11305900F2EFBE3DF2EF02D0F2EF7E1EF2EF02DC3
S11305A0CCE00F2EF6E0CF2EF02D03E613E0DFE1D2
S11305B0FF246894F1F88091AE00882371F4A9DDDA
S11305C0C5DD5BDE8FEF97E8A3E181509040A0404A
S11305D0E1F700C000003CDFEECF813009F05BC0E2
S11305E0839922C0839BFECF8FEF93EFA1E08150CC
S11305F09040A040E1F700C000008091B5008F5FFB
S11306008093B5008F3114F0D093B50081E060E0A1
S113061080D58091B500992787FD909562E070E0C0
S11306200CD681E0EED5C7CF849923C0849BFECF3E
S11306308FEF93EFA1E081509040A040E1F700C01C
S113064000008091B50081508093B50082301CF485
S113065081E08093B50081E060E05BD58091B500D6
S1130660992787FD909562E070E0E7D581E0C9D5D0
S1130670A2CF8599A0CF859BFECF8FEF93EFA1E00A
S113068081509040A040E1F700C00000F092AE001D
S1130690812FC5D590CF823009F05BC0839922C0E9
S11306A0839BFECF8FEF93EFA1E081509040A04059
S11306B0E1F700C000008091BD008F5F8093BD0012
S11306C08C3014F0C093BD0084E060E022D58091AA
S11306D0BD00992787FD909562E070E0AED581E07A
S11306E090D569CF849923C0849BFECF8FEF93EF7D
S11306F0A1E081509040A040E1F700C0000080914B
S1130700BD0081508093BD0082301CF481E0809351
S1130710BD0084E060E0FDD48091BD00992787FD91
S1130720909562E070E089D581E06BD544CF8599DE
S113073042CF859BFECF8FEF93EFA1E08150904095
S1130740A040E1F700C000001093AE0085E067D53B
S113075032CF833009F05AC0839922C0839BFECFE5
S11307608FEF93EFA1E081509040A040E1F700C0EB
S113077000008091BA008F5F8093BA00833614F032
S11307800093BA0089E060E0C4D48091BA0099274C
S113079087FD909562E070E050D581E032D50BCFB3
S11307A0849922C0849BFECF8FEF93EFA1E0815008
S11307B09040A040E1F700C000008091BA00815051
S11307C08093BA00882314F41092BA0089E060E0A0
S11307D0A0D48091BA00992787FD909562E070E0DB
S11307E02CD581E00ED5E7CE8599E5CE859BFECF4D
S11307F08FEF93EFA1E081509040A040E1F700C05B
S1130800000084E08093AE000AD5D5CE843009F090
S113081065C0839927C0839BFECF8FEF93EFA1E040
S113082081509040A040E1F700C000008091B900E1
S11308308F5F8093B90088301CF081E08093B90009
S11308408C2F60E066D48091B900992787FD90953C
S1130850880F991F880F991F82579F4F36D581E0C3
S1130860D0D4A9CE849927C0849BFECF8FEF93EF79
S1130870A1E081509040A040E1F700C000008091C9
S1130880B90081508093B90018161CF087E080935A
S1130890B9008C2F60E03DD48091B900992787FD81
S11308A09095880F991F880F991F82579F4F0DD5D8
S11308B081E0A7D480CE85997ECE859BFECF8FEF35
S11308C093EFA1E081509040A040E1F700C0000008
S11308D085E08093AE0061E01CD46DCE853009F0D4
S11308E05BC0839922C0839BFECF8FEF93EFA1E07F
S11308F081509040A040E1F700C000008091B30017
S11309008F5F8093B300873114F0E092B30084E0EA
S113091061E0FFD38091B300992787FD909562E051
S113092070E08BD481E06DD446CE849922C0849B40
S1130930FECF8FEF93EFA1E081509040A040E1F70C
S113094000C000008091B30081508093B30018165A
S113095014F01092B30084E061E0DBD38091B30023
S1130960992787FD909562E070E067D481E049D4CF
S113097022CE859920CE859BFECF8FEF93EFA1E009
S113098081509040A040E1F700C00000C092AE004A
S113099088E061E0BED30FCE863009F05CC0839955
S11309A022C0839BFECF8FEF93EFA1E08150904054
S11309B0A040E1F700C000008091BE008F5F8093EB
S11309C0BE008B3314F0D092BE0087E061E0A1D367
S11309D08091BE00992787FD909562E070E02DD448
S11309E081E00FD4E8CD849922C0849BFECF8FEFA1
S11309F093EFA1E081509040A040E1F700C00000D7
S1130A008091BE0081508093BE00181614F010929D
S1130A10BE0087E061E07DD38091BE00992787FD09
S1130A20909562E070E009D481E0EBD3C4CD859960
S1130A30C2CD859BFECF8FEF93EFA1E08150904014
S1130A40A040E1F700C0000087E08093AE008BE097
S1130A5061E05FD3B0CD873009F063C0839922C0D1
S1130A60839BFECF8FEF93EFA1E081509040A04095
S1130A70E1F700C000008091BF008F5F8093BF004A
S1130A808B3314F0D092BF008AE061E042D38091AE
S1130A90BF00992787FD909562E070E0CED381E096
S1130AA0B0D389CD849922C0849BFECF8FEF93EF7E
S1130AB0A1E081509040A040E1F700C00000809187
S1130AC0BF0081508093BF00181614F01092BF002D
S1130AD08AE061E01ED38091BF00992787FD90953D
S1130AE062E070E0AAD381E08CD365CD859963CDB3
S1130AF0859BFECF8FEF93EFA1E081509040A04003
S1130B00E1F700C000000BDC8FEF90E7A2E081501A
S1130B109040A040E1F700C000006AD31092AE00FC
S1130B204ACD8B3009F05BC0839922C0839BFECFF2
S1130B308FEF93EFA1E081509040A040E1F700C017
S1130B4000008091BB008F5F8093BB00873114F05D
S1130B50E092BB0085E061E0DCD28091BB00992784
S1130B6087FD909562E070E068D381E04AD323CD9D
S1130B70849922C0849BFECF8FEF93EFA1E0815034
S1130B809040A040E1F700C000008091BB0081507C
S1130B908093BB00181614F01092BB0085E061E04E
S1130BA0B8D28091BB00992787FD909562E070E0F0
S1130BB044D381E026D3FFCC8599FDCC859BFECF21
S1130BC08FEF93EFA1E081509040A040E1F700C087
S1130BD00000C093AE0089E061E09BD2ECCC8C3085
S1130BE009F06EC0839922C0839BFECF8FEF93EFF1
S1130BF0A1E081509040A040E1F700C00000809146
S1130C00B4008F5F8093B4008B3314F0D092B4009F
S1130C1088E061E07ED28091B400992787FD9095A9
S1130C2062E070E00AD381E0ECD2C5CC849922C0A2
S1130C30849BFECF8FEF93EFA1E081509040A040C2
S1130C40E1F700C000008091B40081508093B400AB
S1130C50181614F01092B40088E061E05AD2809122
S1130C60B400992787FD909562E070E0E6D281E0B8
S1130C70C8D2A1CC85999FCC859BFECF8FEF93EFF3
S1130C80A1E081509040A040E1F700C0000080E066
S1130C9090E06091BB00B5DB81E090E06091B4002E
S1130CA0B0DB8FEF90E7A2E081509040A040E1F7E5
S1130CB000C0000013D29CD222DA1092AE007BCC8A
S1130CC0853109F05CC0839922C0839BFECF8FEFEE
S1130CD093EFA1E081509040A040E1F700C00000F4
S1130CE08091B8008F5F8093B800873114F0E09250
S1130CF0B80085E061E00DD28091B800992787FDA6
S1130D00909562E070E099D281E07BD254CC8499D2
S1130D1022C0849BFECF8FEF93EFA1E081509040DF
S1130D20A040E1F700C000008091B800815080939A
S1130D30B800181614F01092B80085E061E0E9D10B
S1130D408091B800992787FD909562E070E075D294
S1130D5081E057D230CC85992ECC859BFECF8FEF86
S1130D6093EFA1E081509040A040E1F700C0000063
S1130D7096E19093AE0089E061E0CBD11CCC863142
S1130D8009F019CC839922C0839BFECF8FEF93EF98
S1130D90A1E081509040A040E1F700C000008091A4
S1130DA0BC008F5F8093BC008B3314F0D092BC00E6
S1130DB088E061E0AED18091BC00992787FD9095D1
S1130DC062E070E03AD281E01CD2F5CB849922C073
S1130DD0849BFECF8FEF93EFA1E081509040A04021
S1130DE0E1F700C000008091BC0081508093BC00FA
S1130DF0181614F01092BC0088E061E08AD180914A
S1130E00BC00992787FD909562E070E016D281E0DE
S1130E10F8D1D1CB8599CFCB859BFECF8FEF93EFC4
S1130E20A1E081509040A040E1F700C0000082E0C2
S1130E3090E06091B800E5DA83E090E06091BC0056
S1130E40E0DA8FEF90E7A2E081509040A040E1F714
S1130E5000C0000043D1CCD152D91092AE00ABCB2C
S1130E601F93CF93DF93182FEB0149D080ED53D01C
S1130E70882389F0812F4FD0882379F040D081EDE9
S1130E804AD0882361F0CE0160E05ED0882349F027
S1130E903CD081E007C080E005C080E003C080E072
S1130EA001C080E0DF91CF911F910895CF93DF932C
S1130EB0C82FD62F24D080ED2ED0882359F08C2F24
S1130EC02AD0882349F08D2F26D0882339F01DD0CD
S1130ED081E005C080E003C080E001C080E0DF91D4
S1130EE0CF91089582E080B981B1836081B986B7DA
S1130EF0846086BF089586B78B7F86BF089584EA91
S1130F0086BF06B607FEFDCF089584E986BF06B600
S1130F1004FCFDCF089583B984E886BF06B607FEB6
S1130F20FDCF81B1887F883159F081B1887F8832C3
S1130F3049F091B1987F81E0903429F080E00895E0
S1130F4081E0089581E00895662321F026B72064A6
S1130F5026BF03C026B72F7B26BF26B7206826BF2F
S1130F6006B607FEFDCF21B1287F283521F021B137
S1130F70287F203529F423B1FC01208381E00895E2
S1130F8080E00895882314F4C09A01C0C09886FFB5
S1130F9002C0C19A01C0C19885FF02C0C29A01C0B3
S1130FA0C29884FF02C0C39A0895C3980895CF934A
S1130FB0C82F807FE7DFC69AC49A8FEC97E0019729
S1130FC0F1F700C00000C498C6988FEC97E0019731
S1130FD0F1F700C000008C2F8295807FD3DFC69A82
S1130FE0C49A8FEC97E00197F1F700C00000C49811
S1130FF0C6988FEC97E00197F1F700C00000CF91FD
S11310000895CF93C82F807FBDDFC49A8FEC97E0FB
S11310100197F1F700C00000C4988FEC97E00197A6
S1131020F1F700C000008C2F8295807FABDFC49A5B
S11310308FEC97E00197F1F700C00000C4988FECA3
S113104097E00197F1F700C00000CF9108958FE277
S113105095E70197F1F700C0000080E093DFC698A0
S1131060C598C498BB9ABA9AB99AB89ABE9ABD9AC6
S1131070BC9A80E387DFC49A8FEC97E00197F1F77D
S113108000C00000C4988FEC97E00197F1F700C00E
S1131090000080E377DFC49A8FEC97E00197F1F7C3
S11310A000C00000C4988FEC97E00197F1F700C0EE
S11310B0000080E267DFC49A8FEC97E00197F1F7B4
S11310C000C00000C4988FEC97E00197F1F700C0CE
S11310D0000088E296DF8CE094DF089581E091DFE0
S11310E0089582E08EDF08950F931F93CF93DF93CB
S11310F0162F009749F0662339F0EC0100E089913E
S113110056DF0F5F0117D9F7DF91CF911F910F9130
S11311100895623031F0633031F0613029F4805C3D
S113112003C08C5E01C08C5A80686BDF08950F93F6
S11311301F93CF938C01862F642FEBDFC801F80136
S11311402491222361F0C0E0FC01849130DFCF5F61
S1131150C8018C0F911DFC0124912223A9F7CF9182
S11311601F910F910895EF92FF920F931F93CF93C6
S1131170DF937C01D62FDD0FDD0FDD0FD06400E09F
S113118010E0F701E00FF11FC4918D2F800F39DFBC
S11311908C2F0DDF0F5F1F4F0830110591F7DF9182
S11311A0CF911F910F91FF90EF900895CF93DF930C
S11311B0D82F882331F0C0E08EE123DFCF5FCD1735
S11311C0D9F7DF91CF910895CF93DF93D82F882358
S11311D031F0C0E088E115DFCF5FCD17D9F7DF919B
S11311E0CF9108958EE00DDF08958FE00ADF089512
S11311F08CE007DF089588E004DF08958CE001DFC8
S11312000895CF93DF93D82F882331F0C0E080E195
S1131210F8DECF5FCD17D9F7DF91CF910895CF9343
S1131220DF93D82F882331F0C0E084E1EADECF5F7A
S1131230CD17D9F7DF91CF910895EF92FF920F93D5
S11312401F93CF93DF9300D000D00F92CDB7DEB7BA
S11312507B01FE01319625E0DF011D922A95E9F715
S1131260009759F0FE0136962AE030E0B90148D0E3
S11312708293862F972F0097C9F705E010E00E1987
S11312801F0905301105ACF4E1E0F0E0EC0FFD1F9F
S11312900E0F1F1F0F2EF6E0EF2EFF24F02DEC0E85
S11312A0FD1ED8018D918D01805D81DE0E151F0517
S11312B0C1F70F900F900F900F900F90DF91CF9187
S11312C01F910F91FF90EF900895CF93DF93EC015E
S11312D08881882329F021966ADE89918823E1F7A1
S11312E0DF91CF91089587FB082E062687FD81950F
S11312F067FD619518D00EF4919507FC81950895CA
S113130097FB092E07260AD077FD04D018D006D003
S113131000201AF4709561957F4F0895F6F7909523
S113132081959F4F0895991B79E004C0991F9617E2
S113133008F0961B881F7A95C9F780950895AA1B13
S1131340BB1B51E107C0AA1FBB1FA617B70710F0AC
S1131350A61BB70B881F991F5A95A9F780959095DE
S10D1360BC01CD010895F894FFCFFD
S113136A2020202F20202F3230002020202020204F
S113137A3A20203A20200053544152542054494DD3
S113138A45003A0053544F502054494D45004E5598
S113139A4C0053554E004D4F4E0054554500574589
S11113AA440054485500465249005341540033
S9030000FC
