:1000000012C024C023C022C021C020C01FC01EC0F7
:100010001DC01CC01BC01AC019C018C017C016C014
:1000200015C014C013C011241FBECFE5D4E0DEBF3D
:10003000CDBF10E0A0E6B0E0EAE4F4E002C0059035
:100040000D92A237B107D9F702D0FDC1D9CF48D15F
:1000500089D1D4D180E690E08BD12FEB87E299E073
:10006000215080409040E1F700C000007BD12FE993
:1000700086E891E0215080409040E1F700C0000008
:10008000B7D12FEB87E299E0215080409040E1F713
:1000900000C0000067D12FE986E891E02150804040
:1000A0009040E1F700C00000A6D12FEB87E299E075
:1000B000215080409040E1F700C000002FE986E821
:1000C00091E0215080409040E1F700C0000060E0E6
:1000D00085E064D12FEB87E299E021508040904089
:1000E000E1F700C000002FE986E891E02150804050
:1000F0009040E1F700C0000061E08EE04FD12FEBAF
:1001000087E299E0215080409040E1F700C0000074
:100110002FE986E891E0215080409040E1F700C04F
:10012000000023D12FEB87E299E0215080409040DE
:10013000E1F700C000002FE986E891E021508040FF
:100140009040E1F700C0000059D12FEB87E299E021
:10015000215080409040E1F700C000002FE986E880
:1001600091E0215080409040E1F700C0000086E619
:1001700090E0FED02FE38DE093E02150804090404E
:10018000E1F700C000003DD12FE78AE196E0215061
:1001900080409040E1F700C0000036D12FEB87E2AD
:1001A00099E0215080409040E1F700C0000086E0D7
:1001B00003D12FEB87E299E0215080409040E1F796
:1001C00000C0000084E006D12FEB87E299E02150C7
:1001D00080409040E1F700C00000C4D02FE986E8DD
:1001E00091E0215080409040E1F700C0000003D131
:1001F0002FE986E891E0215080409040E1F700C06F
:10020000000087E012D12FE78AE196E0215080407C
:100210009040E1F700C0000083E0F9D02FE78AE1C9
:1002200096E0215080409040E1F700C000009AD055
:100230002FE986E891E0215080409040E1F700C02E
:10024000000008CF982F907F92BB909A929AE9EF86
:10025000F0E03197F1F700C0000092989098E9EF34
:10026000F0E03197F1F700C00000F0E18F9FC0018E
:10027000112482BB909A929A89EF90E00197F1F74E
:1002800000C0000092989098E9EFF0E03197F1F704
:1002900000C000000895982F907F92BB929AE9EFDA
:1002A000F0E03197F1F700C000009298E9EFF0E03C
:1002B0003197F1F700C00000F0E18F9FC0011124D9
:1002C00082BB929A89EF90E00197F1F700C000009D
:1002D0009298E9EFF0E03197F1F700C0000008953F
:1002E00085EA9EE00197F1F700C0000012BA12BA49
:1002F00081B3806F81BB81B3876081BB80E382BBA8
:10030000929AE9EFF0E03197F1F700C0000092987F
:10031000E9EFF0E03197F1F700C0000082BB929A5C
:1003200089EF90E00197F1F700C000009298E9EFA3
:10033000F0E03197F1F700C0000080E282BB929AB2
:1003400089EF90E00197F1F700C000009298E9EF83
:10035000F0E03197F1F700C0000088E29CDF8EE00A
:100360009ADF089581E097DF089582E094DF089591
:100370001F93CF93DF93EC01009761F0888188236E
:1003800049F010E01F5F5EDFFE01E10FF11D80818B
:100390008111F8CFDF91CF911F910895623031F034
:1003A000633031F0613029F4805C03C08C5E01C0A1
:1003B0008C5A806870DF0895CF93DF93D82F8823FD
:1003C00031F0C0E08EE167DFCF5FCD13FBCFDF916F
:1003D000CF910895CF93DF93D82F882331F0C0E0D9
:1003E00088E159DFCF5FCD13FBCFDF91CF91089527
:1003F0008EE051DF08958FE04EDF08958CE04BDFF3
:10040000089588E048DF08958CE045DF0895CF9394
:10041000DF93D82F882331F0C0E080E13CDFCF5F4D
:10042000CD13FBCFDF91CF910895CF93DF93D82FDA
:10043000882331F0C0E084E12EDFCF5FCD13FBCF06
:0A044000DF91CF910895F894FFCFEB
:10044A00484153414E004C4344204F46462D4F4E9F
:02045A000000A0
:00000001FF
