S02300005553415254207769746820547820527820496E74657272757074732E7372656360
S113000012C02CC02BC02AC029C028C027C026C0BB
S113001025C024C023C026C021C032C01FC01EC0BA
S11300201DC01CC01BC011241FBECFE5D4E0DEBF21
S1130030CDBF10E0A0E6B0E0E2E5F1E002C005903B
S11300400D92A437B107D9F720E0A4E7B0E001C0CE
S11300501D92A537B207E1F702D079C0D1CF6BD09A
S11300607894FFCF1F920F920FB60F9211248F93A3
S11300708CB18CB98F910F900FBE0F901F90189573
S11300801F920F920FB60F9211242F933F934F9309
S11300905F936F937F938F939F93AF93BF93EF93EC
S11300A0FF93CF93DF93CDB7DEB76397DEBFCDBFAA
S11300B083E1E0E6F0E0DE01119601900D928A956D
S11300C0E1F780917400E1E0F0E0EC0FFD1FE80F30
S11300D0F11D80818CB9809174008F5F823118F496
S11300E0809374000FC0109274008DE02CD08AE0CD
S11300F02AD02FEF84E39CE0215080409040E1F728
S113010000C0000063960FB6F894DEBF0FBECDBFEB
S1130110DF91CF91FF91EF91BF91AF919F918F911B
S11301207F916F915F914F913F912F910F900FBEEF
S11301300F901F90189588E98AB986E880BD10BC95
S113014083E389B908955D9BFECF8CB90895F89433
S1050150FFCFDB
S11301525468697320612073616D706C65207465E5
S107016278740000A9
S9030000FC
