S00D000031302E31322E7372656325
S11300000C942A000C9462000C9434000C94340078
S11300100C9434000C9434000C9434000C9434008C
S11300200C9434000C9434000C9434000C9434007C
S11300300C9434000C9434000C9434000C9434006C
S11300400C9434000C9434000C9434000C9434005C
S11300500C94340011241FBECFE5D4E0DEBFCDBF25
S11300600E9436000C9474000C9400008FEF8ABB3D
S1130070A39A8A9885B7826085BF85B78E7F85BF2E
S11300808BB780648BBF789480E090E041E050E0CF
S113009070E060E09A01082E02C0220F331F0A9418
S11300A0E2F72BBB2FEF34E3ECE021503040E0408B
S11300B0E1F700C000000196883091055CF3872FBA
S11300C0962FE8CF1F920F920FB60F9211248F93A1
S11300D09F9395B388E0892785BB9F918F910F905B
S10F00E00FBE0F901F901895F894FFCFEE
S9030000FC
